{
  "contractName": "Ladycontract",
  "abi": [
    {
      "anonymous": false,
      "inputs": [
        {
          "indexed": true,
          "internalType": "address",
          "name": "owner",
          "type": "address"
        },
        {
          "indexed": true,
          "internalType": "address",
          "name": "approved",
          "type": "address"
        },
        {
          "indexed": true,
          "internalType": "uint256",
          "name": "tokenId",
          "type": "uint256"
        }
      ],
      "name": "Approval",
      "type": "event"
    },
    {
      "anonymous": false,
      "inputs": [
        {
          "indexed": true,
          "internalType": "address",
          "name": "owner",
          "type": "address"
        },
        {
          "indexed": true,
          "internalType": "address",
          "name": "operator",
          "type": "address"
        },
        {
          "indexed": false,
          "internalType": "bool",
          "name": "approved",
          "type": "bool"
        }
      ],
      "name": "ApprovalForAll",
      "type": "event"
    },
    {
      "anonymous": false,
      "inputs": [
        {
          "indexed": false,
          "internalType": "address",
          "name": "owner",
          "type": "address"
        },
        {
          "indexed": false,
          "internalType": "uint256",
          "name": "littleLadyId",
          "type": "uint256"
        },
        {
          "indexed": false,
          "internalType": "uint256",
          "name": "ladyMomId",
          "type": "uint256"
        },
        {
          "indexed": false,
          "internalType": "uint256",
          "name": "ladyDadId",
          "type": "uint256"
        },
        {
          "indexed": false,
          "internalType": "uint256",
          "name": "genes",
          "type": "uint256"
        }
      ],
      "name": "Birth",
      "type": "event"
    },
    {
      "anonymous": false,
      "inputs": [
        {
          "indexed": true,
          "internalType": "address",
          "name": "from",
          "type": "address"
        },
        {
          "indexed": true,
          "internalType": "address",
          "name": "to",
          "type": "address"
        },
        {
          "indexed": true,
          "internalType": "uint256",
          "name": "tokenId",
          "type": "uint256"
        }
      ],
      "name": "Transfer",
      "type": "event"
    },
    {
      "constant": true,
      "inputs": [],
      "name": "CREATION_LIMIT_GEN0",
      "outputs": [
        {
          "internalType": "uint256",
          "name": "",
          "type": "uint256"
        }
      ],
      "payable": false,
      "stateMutability": "view",
      "type": "function"
    },
    {
      "constant": true,
      "inputs": [],
      "name": "gen0Counter",
      "outputs": [
        {
          "internalType": "uint256",
          "name": "",
          "type": "uint256"
        }
      ],
      "payable": false,
      "stateMutability": "view",
      "type": "function"
    },
    {
      "constant": true,
      "inputs": [
        {
          "internalType": "uint256",
          "name": "",
          "type": "uint256"
        }
      ],
      "name": "ladyIndexToApproved",
      "outputs": [
        {
          "internalType": "address",
          "name": "",
          "type": "address"
        }
      ],
      "payable": false,
      "stateMutability": "view",
      "type": "function"
    },
    {
      "constant": true,
      "inputs": [
        {
          "internalType": "uint256",
          "name": "",
          "type": "uint256"
        }
      ],
      "name": "ladyIndexToOwner",
      "outputs": [
        {
          "internalType": "address",
          "name": "",
          "type": "address"
        }
      ],
      "payable": false,
      "stateMutability": "view",
      "type": "function"
    },
    {
      "constant": true,
      "inputs": [],
      "name": "nombre",
      "outputs": [
        {
          "internalType": "string",
          "name": "",
          "type": "string"
        }
      ],
      "payable": false,
      "stateMutability": "view",
      "type": "function"
    },
    {
      "constant": true,
      "inputs": [],
      "name": "owner",
      "outputs": [
        {
          "internalType": "address",
          "name": "",
          "type": "address"
        }
      ],
      "payable": false,
      "stateMutability": "view",
      "type": "function"
    },
    {
      "constant": true,
      "inputs": [],
      "name": "simbolo",
      "outputs": [
        {
          "internalType": "string",
          "name": "",
          "type": "string"
        }
      ],
      "payable": false,
      "stateMutability": "view",
      "type": "function"
    },
    {
      "constant": true,
      "inputs": [
        {
          "internalType": "bytes4",
          "name": "_interfaceId",
          "type": "bytes4"
        }
      ],
      "name": "supportInterface",
      "outputs": [
        {
          "internalType": "bool",
          "name": "",
          "type": "bool"
        }
      ],
      "payable": false,
      "stateMutability": "view",
      "type": "function"
    },
    {
      "constant": false,
      "inputs": [
        {
          "internalType": "address",
          "name": "_from",
          "type": "address"
        },
        {
          "internalType": "address",
          "name": "_to",
          "type": "address"
        },
        {
          "internalType": "uint256",
          "name": "_tokenId",
          "type": "uint256"
        },
        {
          "internalType": "bytes",
          "name": "_data",
          "type": "bytes"
        }
      ],
      "name": "safeTransferFrom",
      "outputs": [],
      "payable": false,
      "stateMutability": "nonpayable",
      "type": "function"
    },
    {
      "constant": false,
      "inputs": [
        {
          "internalType": "address",
          "name": "_from",
          "type": "address"
        },
        {
          "internalType": "address",
          "name": "_to",
          "type": "address"
        },
        {
          "internalType": "uint256",
          "name": "_tokenId",
          "type": "uint256"
        }
      ],
      "name": "safeTransferFrom",
      "outputs": [],
      "payable": false,
      "stateMutability": "nonpayable",
      "type": "function"
    },
    {
      "constant": true,
      "inputs": [
        {
          "internalType": "uint256",
          "name": "_id",
          "type": "uint256"
        }
      ],
      "name": "getLady",
      "outputs": [
        {
          "internalType": "uint256",
          "name": "birthTime",
          "type": "uint256"
        },
        {
          "internalType": "uint256",
          "name": "ladyMomId",
          "type": "uint256"
        },
        {
          "internalType": "uint256",
          "name": "ladyDadId",
          "type": "uint256"
        },
        {
          "internalType": "uint256",
          "name": "generation",
          "type": "uint256"
        },
        {
          "internalType": "uint256",
          "name": "genes",
          "type": "uint256"
        }
      ],
      "payable": false,
      "stateMutability": "view",
      "type": "function"
    },
    {
      "constant": true,
      "inputs": [
        {
          "internalType": "address",
          "name": "_owner",
          "type": "address"
        }
      ],
      "name": "ladiesOfOwner",
      "outputs": [
        {
          "internalType": "uint256[]",
          "name": "",
          "type": "uint256[]"
        }
      ],
      "payable": false,
      "stateMutability": "view",
      "type": "function"
    },
    {
      "constant": false,
      "inputs": [
        {
          "internalType": "uint256",
          "name": "_genes",
          "type": "uint256"
        }
      ],
      "name": "createLadyGen0",
      "outputs": [
        {
          "internalType": "uint256",
          "name": "",
          "type": "uint256"
        }
      ],
      "payable": false,
      "stateMutability": "nonpayable",
      "type": "function"
    },
    {
      "constant": true,
      "inputs": [],
      "name": "name",
      "outputs": [
        {
          "internalType": "string",
          "name": "tokenName",
          "type": "string"
        }
      ],
      "payable": false,
      "stateMutability": "view",
      "type": "function"
    },
    {
      "constant": true,
      "inputs": [],
      "name": "symbol",
      "outputs": [
        {
          "internalType": "string",
          "name": "tokenSymbol",
          "type": "string"
        }
      ],
      "payable": false,
      "stateMutability": "view",
      "type": "function"
    },
    {
      "constant": true,
      "inputs": [
        {
          "internalType": "address",
          "name": "owner",
          "type": "address"
        }
      ],
      "name": "balanceOf",
      "outputs": [
        {
          "internalType": "uint256",
          "name": "balance",
          "type": "uint256"
        }
      ],
      "payable": false,
      "stateMutability": "view",
      "type": "function"
    },
    {
      "constant": true,
      "inputs": [],
      "name": "totalSupply",
      "outputs": [
        {
          "internalType": "uint256",
          "name": "total",
          "type": "uint256"
        }
      ],
      "payable": false,
      "stateMutability": "view",
      "type": "function"
    },
    {
      "constant": true,
      "inputs": [
        {
          "internalType": "uint256",
          "name": "_tokenId",
          "type": "uint256"
        }
      ],
      "name": "ownerOf",
      "outputs": [
        {
          "internalType": "address",
          "name": "owner",
          "type": "address"
        }
      ],
      "payable": false,
      "stateMutability": "view",
      "type": "function"
    },
    {
      "constant": false,
      "inputs": [
        {
          "internalType": "address",
          "name": "_to",
          "type": "address"
        },
        {
          "internalType": "uint256",
          "name": "_tokenId",
          "type": "uint256"
        }
      ],
      "name": "transfer",
      "outputs": [],
      "payable": false,
      "stateMutability": "nonpayable",
      "type": "function"
    },
    {
      "constant": false,
      "inputs": [
        {
          "internalType": "address",
          "name": "_to",
          "type": "address"
        },
        {
          "internalType": "uint256",
          "name": "_tokenId",
          "type": "uint256"
        }
      ],
      "name": "approve",
      "outputs": [],
      "payable": false,
      "stateMutability": "nonpayable",
      "type": "function"
    },
    {
      "constant": false,
      "inputs": [
        {
          "internalType": "address",
          "name": "_operator",
          "type": "address"
        },
        {
          "internalType": "bool",
          "name": "_approved",
          "type": "bool"
        }
      ],
      "name": "setApprovalForAll",
      "outputs": [],
      "payable": false,
      "stateMutability": "nonpayable",
      "type": "function"
    },
    {
      "constant": true,
      "inputs": [
        {
          "internalType": "uint256",
          "name": "_tokenId",
          "type": "uint256"
        }
      ],
      "name": "getApproved",
      "outputs": [
        {
          "internalType": "address",
          "name": "",
          "type": "address"
        }
      ],
      "payable": false,
      "stateMutability": "view",
      "type": "function"
    },
    {
      "constant": true,
      "inputs": [
        {
          "internalType": "address",
          "name": "owner",
          "type": "address"
        },
        {
          "internalType": "address",
          "name": "operator",
          "type": "address"
        }
      ],
      "name": "isApprovedForAll",
      "outputs": [
        {
          "internalType": "bool",
          "name": "",
          "type": "bool"
        }
      ],
      "payable": false,
      "stateMutability": "view",
      "type": "function"
    },
    {
      "constant": false,
      "inputs": [
        {
          "internalType": "address",
          "name": "_from",
          "type": "address"
        },
        {
          "internalType": "address",
          "name": "_to",
          "type": "address"
        },
        {
          "internalType": "uint256",
          "name": "_tokenId",
          "type": "uint256"
        }
      ],
      "name": "transferFrom",
      "outputs": [],
      "payable": false,
      "stateMutability": "nonpayable",
      "type": "function"
    }
  ],
  "bytecode": "0x6080604052336000806101000a81548173ffffffffffffffffffffffffffffffffffffffff021916908373ffffffffffffffffffffffffffffffffffffffff160217905550611ca2806100536000396000f3fe608060405234801561001057600080fd5b50600436106101585760003560e01c806375e79be6116100c3578063b88d4fde1161007c578063b88d4fde14610806578063bc7b35b21461090b578063c51524d61461098e578063e985e9c5146109fc578063ef5e94aa14610a78578063f658d0ab14610a9657610158565b806375e79be6146106185780638da5cb5b1461067d57806395d89b41146106c7578063a22cb4651461074a578063a9059cbb1461079a578063b4834330146107e857610158565b80633ff33c26116101155780633ff33c26146103ab57806342842e0e146103ed5780635bb407331461045b5780636352211e146104b95780636d3742001461052757806370a08231146105c057610158565b806306fdde031461015d578063081812fc146101e0578063095ea7b31461024e5780630de82bae1461029c57806318160ddd1461031f57806323b872dd1461033d575b600080fd5b610165610b04565b6040518080602001828103825283818151815260200191508051906020019080838360005b838110156101a557808201518184015260208101905061018a565b50505050905090810190601f1680156101d25780820380516001836020036101000a031916815260200191505b509250505060405180910390f35b61020c600480360360208110156101f657600080fd5b8101908080359060200190929190505050610b41565b604051808273ffffffffffffffffffffffffffffffffffffffff1673ffffffffffffffffffffffffffffffffffffffff16815260200191505060405180910390f35b61029a6004803603604081101561026457600080fd5b81019080803573ffffffffffffffffffffffffffffffffffffffff16906020019092919080359060200190929190505050610b8f565b005b6102a4610c0b565b6040518080602001828103825283818151815260200191508051906020019080838360005b838110156102e45780820151818401526020810190506102c9565b50505050905090810190601f1680156103115780820380516001836020036101000a031916815260200191505b509250505060405180910390f35b610327610c44565b6040518082815260200191505060405180910390f35b6103a96004803603606081101561035357600080fd5b81019080803573ffffffffffffffffffffffffffffffffffffffff169060200190929190803573ffffffffffffffffffffffffffffffffffffffff16906020019092919080359060200190929190505050610c51565b005b6103d7600480360360208110156103c157600080fd5b8101908080359060200190929190505050610d19565b6040518082815260200191505060405180910390f35b6104596004803603606081101561040357600080fd5b81019080803573ffffffffffffffffffffffffffffffffffffffff169060200190929190803573ffffffffffffffffffffffffffffffffffffffff16906020019092919080359060200190929190505050610dab565b005b6104876004803603602081101561047157600080fd5b8101908080359060200190929190505050610dcb565b604051808681526020018581526020018481526020018381526020018281526020019550505050505060405180910390f35b6104e5600480360360208110156104cf57600080fd5b8101908080359060200190929190505050610e7a565b604051808273ffffffffffffffffffffffffffffffffffffffff1673ffffffffffffffffffffffffffffffffffffffff16815260200191505060405180910390f35b6105696004803603602081101561053d57600080fd5b81019080803573ffffffffffffffffffffffffffffffffffffffff169060200190929190505050610eb7565b6040518080602001828103825283818151815260200191508051906020019060200280838360005b838110156105ac578082015181840152602081019050610591565b505050509050019250505060405180910390f35b610602600480360360208110156105d657600080fd5b81019080803573ffffffffffffffffffffffffffffffffffffffff169060200190929190505050610fe4565b6040518082815260200191505060405180910390f35b6106636004803603602081101561062e57600080fd5b8101908080357bffffffffffffffffffffffffffffffffffffffffffffffffffffffff1916906020019092919050505061102d565b604051808215151515815260200191505060405180910390f35b6106856110cd565b604051808273ffffffffffffffffffffffffffffffffffffffff1673ffffffffffffffffffffffffffffffffffffffff16815260200191505060405180910390f35b6106cf6110f2565b6040518080602001828103825283818151815260200191508051906020019080838360005b8381101561070f5780820151818401526020810190506106f4565b50505050905090810190601f16801561073c5780820380516001836020036101000a031916815260200191505b509250505060405180910390f35b6107986004803603604081101561076057600080fd5b81019080803573ffffffffffffffffffffffffffffffffffffffff16906020019092919080351515906020019092919050505061112f565b005b6107e6600480360360408110156107b057600080fd5b81019080803573ffffffffffffffffffffffffffffffffffffffff16906020019092919080359060200190929190505050611269565b005b6107f06112fe565b6040518082815260200191505060405180910390f35b6109096004803603608081101561081c57600080fd5b81019080803573ffffffffffffffffffffffffffffffffffffffff169060200190929190803573ffffffffffffffffffffffffffffffffffffffff169060200190929190803590602001909291908035906020019064010000000081111561088357600080fd5b82018360208201111561089557600080fd5b803590602001918460018302840111640100000000831117156108b757600080fd5b91908080601f016020809104026020016040519081016040528093929190818152602001838380828437600081840152601f19601f820116905080830192505050505050509192919290505050611303565b005b61091361132a565b6040518080602001828103825283818151815260200191508051906020019080838360005b83811015610953578082015181840152602081019050610938565b50505050905090810190601f1680156109805780820380516001836020036101000a031916815260200191505b509250505060405180910390f35b6109ba600480360360208110156109a457600080fd5b8101908080359060200190929190505050611363565b604051808273ffffffffffffffffffffffffffffffffffffffff1673ffffffffffffffffffffffffffffffffffffffff16815260200191505060405180910390f35b610a5e60048036036040811015610a1257600080fd5b81019080803573ffffffffffffffffffffffffffffffffffffffff169060200190929190803573ffffffffffffffffffffffffffffffffffffffff169060200190929190505050611396565b604051808215151515815260200191505060405180910390f35b610a8061142a565b6040518082815260200191505060405180910390f35b610ac260048036036020811015610aac57600080fd5b8101908080359060200190929190505050611430565b604051808273ffffffffffffffffffffffffffffffffffffffff1673ffffffffffffffffffffffffffffffffffffffff16815260200191505060405180910390f35b60606040518060400160405280600c81526020017f43727970746f4c61646965730000000000000000000000000000000000000000815250905090565b60006001805490508210610b5457600080fd5b6004600083815260200190815260200160002060009054906101000a900473ffffffffffffffffffffffffffffffffffffffff169050919050565b610b993382611463565b610ba257600080fd5b610bac81836114cf565b808273ffffffffffffffffffffffffffffffffffffffff163373ffffffffffffffffffffffffffffffffffffffff167f8c5be1e5ebec7d5bd14f71427d1e84f3dd0314c0f7b2291e5b200ac8c7c3b92560405160405180910390a45050565b6040518060400160405280600481526020017f4c4144590000000000000000000000000000000000000000000000000000000081525081565b6000600180549050905090565b600073ffffffffffffffffffffffffffffffffffffffff168273ffffffffffffffffffffffffffffffffffffffff161415610c8b57600080fd5b8273ffffffffffffffffffffffffffffffffffffffff163373ffffffffffffffffffffffffffffffffffffffff161480610ccb5750610cca3382611525565b5b80610cdc5750610cdb8333611396565b5b610ce557600080fd5b610cef8382611463565b610cf857600080fd5b6001805490508110610d0957600080fd5b610d14838383611591565b505050565b60008060009054906101000a900473ffffffffffffffffffffffffffffffffffffffff1673ffffffffffffffffffffffffffffffffffffffff163373ffffffffffffffffffffffffffffffffffffffff1614610d7457600080fd5b601460065410610d8357600080fd5b600660008154809291906001019190505550610da46000806000853361174d565b9050919050565b610dc683838360405180602001604052806000815250611303565b505050565b60008060008060008060018781548110610de157fe5b906000526020600020906002020190508060010160009054906101000a900467ffffffffffffffff1667ffffffffffffffff1695508060010160089054906101000a900463ffffffff1663ffffffff16945080600101600c9054906101000a900463ffffffff1663ffffffff1693508060010160109054906101000a900461ffff1661ffff169250806000015491505091939590929450565b60006002600083815260200190815260200160002060009054906101000a900473ffffffffffffffffffffffffffffffffffffffff169050919050565b606080600360008473ffffffffffffffffffffffffffffffffffffffff1673ffffffffffffffffffffffffffffffffffffffff16815260200190815260200160002054604051908082528060200260200182016040528015610f285781602001602082028038833980820191505090505b509050600080905060008090505b600180549050811015610fd9578473ffffffffffffffffffffffffffffffffffffffff166002600083815260200190815260200160002060009054906101000a900473ffffffffffffffffffffffffffffffffffffffff1673ffffffffffffffffffffffffffffffffffffffff161415610fcc5780838381518110610fb757fe5b60200260200101818152505081806001019250505b8080600101915050610f36565b508192505050919050565b6000600360008373ffffffffffffffffffffffffffffffffffffffff1673ffffffffffffffffffffffffffffffffffffffff168152602001908152602001600020549050919050565b60006380ac58cd60e01b7bffffffffffffffffffffffffffffffffffffffffffffffffffffffff1916827bffffffffffffffffffffffffffffffffffffffffffffffffffffffff191614806110c657506301ffc9a760e01b7bffffffffffffffffffffffffffffffffffffffffffffffffffffffff1916827bffffffffffffffffffffffffffffffffffffffffffffffffffffffff1916145b9050919050565b6000809054906101000a900473ffffffffffffffffffffffffffffffffffffffff1681565b60606040518060400160405280600481526020017f4c41445900000000000000000000000000000000000000000000000000000000815250905090565b3373ffffffffffffffffffffffffffffffffffffffff168273ffffffffffffffffffffffffffffffffffffffff16141561116857600080fd5b80600560003373ffffffffffffffffffffffffffffffffffffffff1673ffffffffffffffffffffffffffffffffffffffff16815260200190815260200160002060008473ffffffffffffffffffffffffffffffffffffffff1673ffffffffffffffffffffffffffffffffffffffff16815260200190815260200160002060006101000a81548160ff0219169083151502179055508173ffffffffffffffffffffffffffffffffffffffff163373ffffffffffffffffffffffffffffffffffffffff167f17307eab39ab6107e8899845ad3d59bd9653f200f220920489ca2b5937696c3183604051808215151515815260200191505060405180910390a35050565b600073ffffffffffffffffffffffffffffffffffffffff168273ffffffffffffffffffffffffffffffffffffffff1614156112a357600080fd5b3073ffffffffffffffffffffffffffffffffffffffff168273ffffffffffffffffffffffffffffffffffffffff1614156112dc57600080fd5b6112e63382611463565b6112ef57600080fd5b6112fa338383611591565b5050565b601481565b61130f33858585611917565b61131857600080fd5b611324848484846119d2565b50505050565b6040518060400160405280600c81526020017f43727970746f4c6164696573000000000000000000000000000000000000000081525081565b60026020528060005260406000206000915054906101000a900473ffffffffffffffffffffffffffffffffffffffff1681565b6000600560008473ffffffffffffffffffffffffffffffffffffffff1673ffffffffffffffffffffffffffffffffffffffff16815260200190815260200160002060008373ffffffffffffffffffffffffffffffffffffffff1673ffffffffffffffffffffffffffffffffffffffff16815260200190815260200160002060009054906101000a900460ff16905092915050565b60065481565b60046020528060005260406000206000915054906101000a900473ffffffffffffffffffffffffffffffffffffffff1681565b60008273ffffffffffffffffffffffffffffffffffffffff166002600084815260200190815260200160002060009054906101000a900473ffffffffffffffffffffffffffffffffffffffff1673ffffffffffffffffffffffffffffffffffffffff1614905092915050565b806004600084815260200190815260200160002060006101000a81548173ffffffffffffffffffffffffffffffffffffffff021916908373ffffffffffffffffffffffffffffffffffffffff1602179055505050565b60008273ffffffffffffffffffffffffffffffffffffffff166004600084815260200190815260200160002060009054906101000a900473ffffffffffffffffffffffffffffffffffffffff1673ffffffffffffffffffffffffffffffffffffffff1614905092915050565b600360008373ffffffffffffffffffffffffffffffffffffffff1673ffffffffffffffffffffffffffffffffffffffff16815260200190815260200160002060008154809291906001019190505550816002600083815260200190815260200160002060006101000a81548173ffffffffffffffffffffffffffffffffffffffff021916908373ffffffffffffffffffffffffffffffffffffffff160217905550600073ffffffffffffffffffffffffffffffffffffffff168373ffffffffffffffffffffffffffffffffffffffff16146116ed57600360008473ffffffffffffffffffffffffffffffffffffffff1673ffffffffffffffffffffffffffffffffffffffff16815260200190815260200160002060008154809291906001900391905055506004600082815260200190815260200160002060006101000a81549073ffffffffffffffffffffffffffffffffffffffff02191690555b808273ffffffffffffffffffffffffffffffffffffffff168473ffffffffffffffffffffffffffffffffffffffff167fddf252ad1be2c89b69c2b068fc378daa952ba7f163c4a11628f55a4df523b3ef60405160405180910390a4505050565b6000611757611bf5565b6040518060a001604052808581526020014267ffffffffffffffff1681526020018863ffffffff1681526020018763ffffffff1681526020018661ffff168152509050600060018083908060018154018082558091505090600182039060005260206000209060020201600090919290919091506000820151816000015560208201518160010160006101000a81548167ffffffffffffffff021916908367ffffffffffffffff16021790555060408201518160010160086101000a81548163ffffffff021916908363ffffffff160217905550606082015181600101600c6101000a81548163ffffffff021916908363ffffffff16021790555060808201518160010160106101000a81548161ffff021916908361ffff16021790555050500390507f0a5311bd2a6608f08a180df2ee7c5946819a649b204b554bb8e39825b2c50ad584828a8a89604051808673ffffffffffffffffffffffffffffffffffffffff1673ffffffffffffffffffffffffffffffffffffffff1681526020018581526020018481526020018381526020018281526020019550505050505060405180910390a161190960008583611591565b809250505095945050505050565b6000600180549050821061192a57600080fd5b600073ffffffffffffffffffffffffffffffffffffffff168373ffffffffffffffffffffffffffffffffffffffff16141561196457600080fd5b61196e8483611463565b61197757600080fd5b8373ffffffffffffffffffffffffffffffffffffffff168573ffffffffffffffffffffffffffffffffffffffff1614806119b757506119b68583611525565b5b806119c857506119c78486611396565b5b9050949350505050565b6119dd848484611591565b6119e9848484846119f8565b6119f257600080fd5b50505050565b6000611a0384611bdc565b611a105760019050611bd4565b60008473ffffffffffffffffffffffffffffffffffffffff1663150b7a02338887876040518563ffffffff1660e01b8152600401808573ffffffffffffffffffffffffffffffffffffffff1673ffffffffffffffffffffffffffffffffffffffff1681526020018473ffffffffffffffffffffffffffffffffffffffff1673ffffffffffffffffffffffffffffffffffffffff16815260200183815260200180602001828103825283818151815260200191508051906020019080838360005b83811015611aeb578082015181840152602081019050611ad0565b50505050905090810190601f168015611b185780820380516001836020036101000a031916815260200191505b5095505050505050602060405180830381600087803b158015611b3a57600080fd5b505af1158015611b4e573d6000803e3d6000fd5b505050506040513d6020811015611b6457600080fd5b810190808051906020019092919050505090506040518080611c3f602f9139602f01905060405180910390207bffffffffffffffffffffffffffffffffffffffffffffffffffffffff1916817bffffffffffffffffffffffffffffffffffffffffffffffffffffffff1916149150505b949350505050565b600080823b905060008163ffffffff1611915050919050565b6040518060a0016040528060008152602001600067ffffffffffffffff168152602001600063ffffffff168152602001600063ffffffff168152602001600061ffff168152509056fe6f6e455243373231526563656976656428616464726573732c616464726573732c75696e743235362c627974657329a265627a7a723158204c7cbe672f51fb01dbefbe039403e4de726c39fb4bb87cab6ffe17728be5b21a64736f6c63430005100032",
  "source": "pragma solidity ^0.5.12;\n\nimport \"./Ownable.sol\";\nimport \"./IERC721.sol\";\nimport \"./IERC721Receiver.sol\";\n\ncontract Ladycontract is IERC721, Ownable  {\n\n    uint256 public constant CREATION_LIMIT_GEN0 = 20;\n    string public constant nombre = \"CryptoLadies\";\n    string public constant simbolo = \"LADY\";\n\n    bytes4 internal constant MAGIC_ERC721_RECEIVED = bytes4(keccak256(\"onERC721Received(address,address,uint256,bytes)\"));\n\n    bytes4 private constant _INTERFACE_ID_ERC721 = 0x80ac58cd;\n\n    bytes4 private constant _INTERFACE_ID_ERC165 = 0x01ffc9a7;\n\n\n\n    event Birth(\n        address owner, \n        uint256 littleLadyId, \n        uint256 ladyMomId, \n        uint256 ladyDadId, \n        uint256 genes\n    );\n\n    struct Lady {          // Struct showing each Lady's dragttributes \n        uint256 genes;\n        uint64 birthTime;\n        uint32 ladyMomId;\n        uint32 ladyDadId;\n        uint16 generation;\n    }\n\nLady[] ladies;  // Array that holds each Lady, the first lady will have ID[0] and that is the unique ID \n                // \n\nmapping (uint256 => address) public ladyIndexToOwner; // mapping from ladyID to address that indicates the Owner\nmapping (address => uint256) ownershipTokenCount; // mapping from address to count -> how many ladies the address owns \n\nmapping (uint256 => address) public ladyIndexToApproved;\nmapping (address => mapping (address => bool)) private _operatorApprovals;\n\nuint256 public gen0Counter;\n\nfunction supportInterface(bytes4 _interfaceId) external view returns (bool) {\n    return ( _interfaceId == _INTERFACE_ID_ERC721 || _interfaceId == _INTERFACE_ID_ERC165);\n}\n\nfunction safeTransferFrom(address _from, address _to, uint256 _tokenId) public {\n    safeTransferFrom(_from, _to, _tokenId, \"\");\n}\n\nfunction safeTransferFrom(address _from, address _to, uint256 _tokenId, bytes memory _data) public {\n    require( _isApprovedOrOwner(msg.sender, _from, _to, _tokenId) );\n\n    _safeTransfer(_from, _to, _tokenId, _data);\n}\n\nfunction _safeTransfer(address _from, address _to, uint256 _tokenId, bytes memory _data) internal {\n    _transfer(_from, _to, _tokenId);\n    require( _checkERC721Support(_from, _to, _tokenId, _data) );\n}\n\nfunction getLady(uint256 _id) external view returns (\n    uint256 birthTime,\n    uint256 ladyMomId,\n    uint256 ladyDadId,\n    uint256 generation,\n    uint256 genes\n)\n{\n    Lady storage lady = ladies [_id];\n\n    birthTime = uint256(lady.birthTime);\n    ladyMomId = uint256(lady.ladyMomId);\n    ladyDadId = uint256(lady.ladyDadId);\n    generation = uint256(lady.generation);\n    genes = lady.genes;\n\n}\n\nfunction ladiesOfOwner(address _owner) external view returns (uint256[] memory) {\n    // array of fixed size as I know the balanceOf(address owner) tokens which is set as ownershipTokenCount array of _owner\n    uint256[] memory result = new uint256[](ownershipTokenCount[_owner]);\n    // counter starts at 0 as per the first index of array which is also the ID of ladies\n    uint256 counter = 0;\n    // loop thru all the ladies[] to find the ladies owned by _owner\n    for (uint256 i = 0; i < ladies.length; i++) {\n            if (ladyIndexToOwner[i] == _owner) {\n                result[counter] = i;\n                counter++;\n            }\n    }\n    return result;  // this will return an array of indexes owned by _owner\n}\n\nfunction createLadyGen0(uint256 _genes) public onlyOwner returns (uint256) {\n    require(gen0Counter < CREATION_LIMIT_GEN0);\n\n    gen0Counter++;\n    \n    // Gen0 have no owners, they are own by the contract\n    // We have to run _createLady with 0s for momId, dadId and generation\n    return _createLady(0, 0, 0, _genes, msg.sender);\n\n}\n\nfunction _createLady(\n    uint256 _ladyMomId,\n    uint256 _ladyDadId,\n    uint256 _generation,\n    uint256 _genes,\n    address _owner\n) private returns (uint256) {\n    Lady memory _lady = Lady({\n        genes: _genes,\n        birthTime: uint64(now),\n        ladyMomId: uint32(_ladyMomId),\n        ladyDadId: uint32(_ladyDadId),\n        generation: uint16(_generation)\n    });\n\n    uint256 newLadyId = ladies.push(_lady) -1;\n\n    emit Birth(_owner, newLadyId, _ladyMomId, _ladyDadId, _genes);\n\n    _transfer(address(0), _owner, newLadyId);\n\n    return newLadyId;\n\n}\n\n function name() external view returns (string memory tokenName) {\n     return nombre;\n\n }\n\n   \nfunction symbol() external view returns (string memory tokenSymbol) {\n    return simbolo;\n\n}\n\nfunction balanceOf(address owner) external view returns (uint256 balance){ \n    return ownershipTokenCount[owner];\n}\n// Returns the length of the array of ladies in existence\nfunction totalSupply() public view returns (uint256 total){\n    return ladies.length;\n}\n\nfunction ownerOf(uint256 _tokenId) external view returns (address owner){\n    return ladyIndexToOwner[_tokenId];\n}\n\nfunction transfer(address _to, uint256 _tokenId) external {\n    require(_to != address(0));\n    require(_to != address(this));\n    require(_owns(msg.sender, _tokenId));\n\n    _transfer(msg.sender, _to, _tokenId);\n\n}\n\nfunction _transfer(address _from, address _to, uint256 _tokenId) internal {\n    ownershipTokenCount[_to]++;\n\n    ladyIndexToOwner[_tokenId] = _to;\n\n    if (_from != address(0)) {\n        ownershipTokenCount[_from]--;\n        delete ladyIndexToApproved[_tokenId];\n    }\n\n    // Emit transfer event.\n    emit Transfer(_from, _to, _tokenId);\n\n}\n\nfunction _owns(address _claimant, uint256 _tokenId) internal view returns (bool) {\n    return ladyIndexToOwner[_tokenId] == _claimant;\n\n}\n\nfunction approve(address _to, uint256 _tokenId) external {\n    require(_owns(msg.sender, _tokenId));\n\n    _approve(_tokenId, _to);\n    emit Approval(msg.sender, _to, _tokenId);\n}\n\nfunction _approve(uint256 _tokenId, address _approved) internal {\n    ladyIndexToApproved[_tokenId] = _approved;\n}\n\n\nfunction setApprovalForAll(address _operator, bool _approved) external {\n    require(_operator != msg.sender);\n\n    _operatorApprovals[msg.sender][_operator] = _approved;\n    emit ApprovalForAll(msg.sender, _operator, _approved);\n\n}\n\nfunction getApproved(uint256 _tokenId) public view returns (address) {\n    require(_tokenId < ladies.length); // token must exist\n\n    return ladyIndexToApproved[_tokenId];\n}\n\nfunction isApprovedForAll(address owner, address operator) public view returns (bool) {\n    return _operatorApprovals[owner][operator];\n\n}\n\nfunction transferFrom(address _from, address _to, uint256 _tokenId) external {\n    require(_to != address(0)); // cant send token to a 0 address\n    // require msg.sender is the owner or msg.sender is approved for the _tokenId or msg.sender is operator from _from\n    require(msg.sender == _from || _approvedFor(msg.sender, _tokenId) || isApprovedForAll(_from, msg.sender));\n    require(_owns(_from, _tokenId));\n    require(_tokenId < ladies.length);\n\n    _transfer(_from, _to, _tokenId);\n}\n\nfunction _approvedFor(address _claimant, uint256 _tokenId) internal view returns (bool) {\n    return ladyIndexToApproved[_tokenId] == _claimant;\n}\n\nfunction _checkERC721Support(address _from, address _to, uint256 _tokenId, bytes memory _data) internal returns (bool) {\n    if( !_isContract(_to) ) {\n        return true;\n    }\n    else {\n         // Call on ERC721Received in the _to contract\n        bytes4 returnData = IERC721Receiver(_to).onERC721Received(msg.sender, _from, _tokenId, _data);\n        return returnData == MAGIC_ERC721_RECEIVED;\n        // Check return value \n    }\n   \n}\n\nfunction _isContract(address _to) view internal returns (bool) {\n    uint32 size;\n    assembly{\n        size := extcodesize(_to)\n    }\n    return size > 0;\n}\n\nfunction _isApprovedOrOwner(address _spender, address _from, address _to, uint256 _tokenId) internal view returns (bool) {\n    require(_tokenId < ladies.length); // token must exist\n    require(_to != address(0)); //TO address is not 0\n    require(_owns(_from, _tokenId)); //FROM owns the token\n\n    // spender is from OR spender is approved for tokenId OR spender is operator for From\n    return (_spender ==_from || _approvedFor(_spender, _tokenId) || isApprovedForAll(_from, _spender));\n}\n\n}",
  "sourcePath": "/Users/andi/Documents/GitHub/ERC 721 Crypto Drags/contracts/Ladycontract.sol",
  "compiler": {
    "name": "solc",
    "version": "0.5.16+commit.9c3226ce.Emscripten.clang"
  },
  "schemaVersion": "3.2.0",
  "updatedAt": "2021-06-28T10:58:02.003Z",
  "networkType": "ethereum",
  "devdoc": {
    "methods": {}
  },
  "userdoc": {
    "methods": {}
  }
}