{
  "contractName": "Ladycontract",
  "abi": [
    {
      "anonymous": false,
      "inputs": [
        {
          "indexed": true,
          "internalType": "address",
          "name": "owner",
          "type": "address"
        },
        {
          "indexed": true,
          "internalType": "address",
          "name": "approved",
          "type": "address"
        },
        {
          "indexed": true,
          "internalType": "uint256",
          "name": "tokenId",
          "type": "uint256"
        }
      ],
      "name": "Approval",
      "type": "event"
    },
    {
      "anonymous": false,
      "inputs": [
        {
          "indexed": false,
          "internalType": "address",
          "name": "owner",
          "type": "address"
        },
        {
          "indexed": false,
          "internalType": "uint256",
          "name": "littleLadyId",
          "type": "uint256"
        },
        {
          "indexed": false,
          "internalType": "uint256",
          "name": "ladyMomId",
          "type": "uint256"
        },
        {
          "indexed": false,
          "internalType": "uint256",
          "name": "ladyDadId",
          "type": "uint256"
        },
        {
          "indexed": false,
          "internalType": "uint256",
          "name": "genes",
          "type": "uint256"
        }
      ],
      "name": "Birth",
      "type": "event"
    },
    {
      "anonymous": false,
      "inputs": [
        {
          "indexed": true,
          "internalType": "address",
          "name": "from",
          "type": "address"
        },
        {
          "indexed": true,
          "internalType": "address",
          "name": "to",
          "type": "address"
        },
        {
          "indexed": true,
          "internalType": "uint256",
          "name": "tokenId",
          "type": "uint256"
        }
      ],
      "name": "Transfer",
      "type": "event"
    },
    {
      "constant": true,
      "inputs": [],
      "name": "CREATION_LIMIT_GEN0",
      "outputs": [
        {
          "internalType": "uint256",
          "name": "",
          "type": "uint256"
        }
      ],
      "payable": false,
      "stateMutability": "view",
      "type": "function"
    },
    {
      "constant": true,
      "inputs": [],
      "name": "gen0Counter",
      "outputs": [
        {
          "internalType": "uint256",
          "name": "",
          "type": "uint256"
        }
      ],
      "payable": false,
      "stateMutability": "view",
      "type": "function"
    },
    {
      "constant": true,
      "inputs": [
        {
          "internalType": "uint256",
          "name": "",
          "type": "uint256"
        }
      ],
      "name": "ladyIndexToOwner",
      "outputs": [
        {
          "internalType": "address",
          "name": "",
          "type": "address"
        }
      ],
      "payable": false,
      "stateMutability": "view",
      "type": "function"
    },
    {
      "constant": true,
      "inputs": [],
      "name": "name",
      "outputs": [
        {
          "internalType": "string",
          "name": "",
          "type": "string"
        }
      ],
      "payable": false,
      "stateMutability": "view",
      "type": "function"
    },
    {
      "constant": true,
      "inputs": [],
      "name": "owner",
      "outputs": [
        {
          "internalType": "address",
          "name": "",
          "type": "address"
        }
      ],
      "payable": false,
      "stateMutability": "view",
      "type": "function"
    },
    {
      "constant": true,
      "inputs": [],
      "name": "symbol",
      "outputs": [
        {
          "internalType": "string",
          "name": "",
          "type": "string"
        }
      ],
      "payable": false,
      "stateMutability": "view",
      "type": "function"
    },
    {
      "constant": true,
      "inputs": [
        {
          "internalType": "uint256",
          "name": "_id",
          "type": "uint256"
        }
      ],
      "name": "getLady",
      "outputs": [
        {
          "internalType": "uint256",
          "name": "birthTime",
          "type": "uint256"
        },
        {
          "internalType": "uint256",
          "name": "ladyMomId",
          "type": "uint256"
        },
        {
          "internalType": "uint256",
          "name": "ladyDadId",
          "type": "uint256"
        },
        {
          "internalType": "uint256",
          "name": "generation",
          "type": "uint256"
        },
        {
          "internalType": "uint256",
          "name": "genes",
          "type": "uint256"
        }
      ],
      "payable": false,
      "stateMutability": "view",
      "type": "function"
    },
    {
      "constant": true,
      "inputs": [
        {
          "internalType": "address",
          "name": "_owner",
          "type": "address"
        }
      ],
      "name": "ladiesOfOwner",
      "outputs": [
        {
          "internalType": "uint256[]",
          "name": "",
          "type": "uint256[]"
        }
      ],
      "payable": false,
      "stateMutability": "view",
      "type": "function"
    },
    {
      "constant": false,
      "inputs": [
        {
          "internalType": "uint256",
          "name": "_genes",
          "type": "uint256"
        }
      ],
      "name": "createLadyGen0",
      "outputs": [
        {
          "internalType": "uint256",
          "name": "",
          "type": "uint256"
        }
      ],
      "payable": false,
      "stateMutability": "nonpayable",
      "type": "function"
    },
    {
      "constant": true,
      "inputs": [
        {
          "internalType": "address",
          "name": "owner",
          "type": "address"
        }
      ],
      "name": "balanceOf",
      "outputs": [
        {
          "internalType": "uint256",
          "name": "balance",
          "type": "uint256"
        }
      ],
      "payable": false,
      "stateMutability": "view",
      "type": "function"
    },
    {
      "constant": true,
      "inputs": [],
      "name": "totalSupply",
      "outputs": [
        {
          "internalType": "uint256",
          "name": "total",
          "type": "uint256"
        }
      ],
      "payable": false,
      "stateMutability": "view",
      "type": "function"
    },
    {
      "constant": true,
      "inputs": [
        {
          "internalType": "uint256",
          "name": "_tokenId",
          "type": "uint256"
        }
      ],
      "name": "ownerOf",
      "outputs": [
        {
          "internalType": "address",
          "name": "owner",
          "type": "address"
        }
      ],
      "payable": false,
      "stateMutability": "view",
      "type": "function"
    },
    {
      "constant": false,
      "inputs": [
        {
          "internalType": "address",
          "name": "_to",
          "type": "address"
        },
        {
          "internalType": "uint256",
          "name": "_tokenId",
          "type": "uint256"
        }
      ],
      "name": "transfer",
      "outputs": [],
      "payable": false,
      "stateMutability": "nonpayable",
      "type": "function"
    }
  ],
  "bytecode": "0x6080604052336000806101000a81548173ffffffffffffffffffffffffffffffffffffffff021916908373ffffffffffffffffffffffffffffffffffffffff160217905550610dde806100536000396000f3fe608060405234801561001057600080fd5b50600436106100cf5760003560e01c806370a082311161008c578063a9059cbb11610066578063a9059cbb14610441578063b48343301461048f578063c51524d6146104ad578063ef5e94aa1461051b576100cf565b806370a082311461031c5780638da5cb5b1461037457806395d89b41146103be576100cf565b806306fdde03146100d457806318160ddd146101575780633ff33c26146101755780635bb40733146101b75780636352211e146102155780636d37420014610283575b600080fd5b6100dc610539565b6040518080602001828103825283818151815260200191508051906020019080838360005b8381101561011c578082015181840152602081019050610101565b50505050905090810190601f1680156101495780820380516001836020036101000a031916815260200191505b509250505060405180910390f35b61015f610572565b6040518082815260200191505060405180910390f35b6101a16004803603602081101561018b57600080fd5b810190808035906020019092919050505061057f565b6040518082815260200191505060405180910390f35b6101e3600480360360208110156101cd57600080fd5b8101908080359060200190929190505050610611565b604051808681526020018581526020018481526020018381526020018281526020019550505050505060405180910390f35b6102416004803603602081101561022b57600080fd5b81019080803590602001909291905050506106c0565b604051808273ffffffffffffffffffffffffffffffffffffffff1673ffffffffffffffffffffffffffffffffffffffff16815260200191505060405180910390f35b6102c56004803603602081101561029957600080fd5b81019080803573ffffffffffffffffffffffffffffffffffffffff1690602001909291905050506106fd565b6040518080602001828103825283818151815260200191508051906020019060200280838360005b838110156103085780820151818401526020810190506102ed565b505050509050019250505060405180910390f35b61035e6004803603602081101561033257600080fd5b81019080803573ffffffffffffffffffffffffffffffffffffffff16906020019092919050505061082a565b6040518082815260200191505060405180910390f35b61037c610873565b604051808273ffffffffffffffffffffffffffffffffffffffff1673ffffffffffffffffffffffffffffffffffffffff16815260200191505060405180910390f35b6103c6610898565b6040518080602001828103825283818151815260200191508051906020019080838360005b838110156104065780820151818401526020810190506103eb565b50505050905090810190601f1680156104335780820380516001836020036101000a031916815260200191505b509250505060405180910390f35b61048d6004803603604081101561045757600080fd5b81019080803573ffffffffffffffffffffffffffffffffffffffff169060200190929190803590602001909291905050506108d1565b005b610497610966565b6040518082815260200191505060405180910390f35b6104d9600480360360208110156104c357600080fd5b810190808035906020019092919050505061096b565b604051808273ffffffffffffffffffffffffffffffffffffffff1673ffffffffffffffffffffffffffffffffffffffff16815260200191505060405180910390f35b61052361099e565b6040518082815260200191505060405180910390f35b6040518060400160405280600c81526020017f43727970746f4c6164696573000000000000000000000000000000000000000081525081565b6000600180549050905090565b60008060009054906101000a900473ffffffffffffffffffffffffffffffffffffffff1673ffffffffffffffffffffffffffffffffffffffff163373ffffffffffffffffffffffffffffffffffffffff16146105da57600080fd5b6014600454106105e957600080fd5b60046000815480929190600101919050555061060a600080600085336109a4565b9050919050565b6000806000806000806001878154811061062757fe5b906000526020600020906002020190508060010160009054906101000a900467ffffffffffffffff1667ffffffffffffffff1695508060010160089054906101000a900463ffffffff1663ffffffff16945080600101600c9054906101000a900463ffffffff1663ffffffff1693508060010160109054906101000a900461ffff1661ffff169250806000015491505091939590929450565b60006002600083815260200190815260200160002060009054906101000a900473ffffffffffffffffffffffffffffffffffffffff169050919050565b606080600360008473ffffffffffffffffffffffffffffffffffffffff1673ffffffffffffffffffffffffffffffffffffffff1681526020019081526020016000205460405190808252806020026020018201604052801561076e5781602001602082028038833980820191505090505b509050600080905060008090505b60018054905081101561081f578473ffffffffffffffffffffffffffffffffffffffff166002600083815260200190815260200160002060009054906101000a900473ffffffffffffffffffffffffffffffffffffffff1673ffffffffffffffffffffffffffffffffffffffff16141561081257808383815181106107fd57fe5b60200260200101818152505081806001019250505b808060010191505061077c565b508192505050919050565b6000600360008373ffffffffffffffffffffffffffffffffffffffff1673ffffffffffffffffffffffffffffffffffffffff168152602001908152602001600020549050919050565b6000809054906101000a900473ffffffffffffffffffffffffffffffffffffffff1681565b6040518060400160405280600481526020017f4c4144590000000000000000000000000000000000000000000000000000000081525081565b600073ffffffffffffffffffffffffffffffffffffffff168273ffffffffffffffffffffffffffffffffffffffff16141561090b57600080fd5b3073ffffffffffffffffffffffffffffffffffffffff168273ffffffffffffffffffffffffffffffffffffffff16141561094457600080fd5b61094e3382610b6e565b61095757600080fd5b610962338383610bda565b5050565b601481565b60026020528060005260406000206000915054906101000a900473ffffffffffffffffffffffffffffffffffffffff1681565b60045481565b60006109ae610d60565b6040518060a001604052808581526020014267ffffffffffffffff1681526020018863ffffffff1681526020018763ffffffff1681526020018661ffff168152509050600060018083908060018154018082558091505090600182039060005260206000209060020201600090919290919091506000820151816000015560208201518160010160006101000a81548167ffffffffffffffff021916908367ffffffffffffffff16021790555060408201518160010160086101000a81548163ffffffff021916908363ffffffff160217905550606082015181600101600c6101000a81548163ffffffff021916908363ffffffff16021790555060808201518160010160106101000a81548161ffff021916908361ffff16021790555050500390507f0a5311bd2a6608f08a180df2ee7c5946819a649b204b554bb8e39825b2c50ad584828a8a89604051808673ffffffffffffffffffffffffffffffffffffffff1673ffffffffffffffffffffffffffffffffffffffff1681526020018581526020018481526020018381526020018281526020019550505050505060405180910390a1610b6060008583610bda565b809250505095945050505050565b60008273ffffffffffffffffffffffffffffffffffffffff166002600084815260200190815260200160002060009054906101000a900473ffffffffffffffffffffffffffffffffffffffff1673ffffffffffffffffffffffffffffffffffffffff1614905092915050565b600360008373ffffffffffffffffffffffffffffffffffffffff1673ffffffffffffffffffffffffffffffffffffffff16815260200190815260200160002060008154809291906001019190505550816002600083815260200190815260200160002060006101000a81548173ffffffffffffffffffffffffffffffffffffffff021916908373ffffffffffffffffffffffffffffffffffffffff160217905550600073ffffffffffffffffffffffffffffffffffffffff168373ffffffffffffffffffffffffffffffffffffffff1614610d0057600360008473ffffffffffffffffffffffffffffffffffffffff1673ffffffffffffffffffffffffffffffffffffffff16815260200190815260200160002060008154809291906001900391905055505b808273ffffffffffffffffffffffffffffffffffffffff168473ffffffffffffffffffffffffffffffffffffffff167fddf252ad1be2c89b69c2b068fc378daa952ba7f163c4a11628f55a4df523b3ef60405160405180910390a4505050565b6040518060a0016040528060008152602001600067ffffffffffffffff168152602001600063ffffffff168152602001600063ffffffff168152602001600061ffff168152509056fea265627a7a72315820b5e7b50daba5e38bbca884173b14a06d36dd59a0aba1cee7d5e5f73fd69bb7a264736f6c63430005100032",
  "source": "pragma solidity ^0.5.12;\nimport \"./Ownable.sol\";\nimport \"./IERC721.sol\";\n\ncontract Ladycontract is IERC721, Ownable  {\n\n    uint256 public constant CREATION_LIMIT_GEN0 = 20;\n    string public constant name = \"CryptoLadies\";\n    string public constant symbol = \"LADY\";\n\n    event Birth(\n        address owner, \n        uint256 littleLadyId, \n        uint256 ladyMomId, \n        uint256 ladyDadId, \n        uint256 genes\n    );\n\n    struct Lady {          // Struct showing each Lady's dragttributes \n        uint256 genes;\n        uint64 birthTime;\n        uint32 ladyMomId;\n        uint32 ladyDadId;\n        uint16 generation;\n    }\n\nLady[] ladies;  // Array that holds each Lady, the first lady will have ID[0] and that is the unique ID \n                // \n\nmapping (uint256 => address) public ladyIndexToOwner; // mapping from ladyID to address that indicates the Owner\nmapping (address => uint256) ownershipTokenCount; // mapping from address to count -> how many ladies the address owns \n\nuint256 public gen0Counter;\n\nfunction getLady(uint256 _id) external view returns (\n    uint256 birthTime,\n    uint256 ladyMomId,\n    uint256 ladyDadId,\n    uint256 generation,\n    uint256 genes\n)\n{\n    Lady storage lady = ladies [_id];\n\n    birthTime = uint256(lady.birthTime);\n    ladyMomId = uint256(lady.ladyMomId);\n    ladyDadId = uint256(lady.ladyDadId);\n    generation = uint256(lady.generation);\n    genes = lady.genes;\n\n}\n\nfunction ladiesOfOwner(address _owner) external view returns (uint256[] memory) {\n    // array of fixed size as I know the balanceOf(address owner) tokens which is set as ownershipTokenCount array of _owner\n    uint256[] memory result = new uint256[](ownershipTokenCount[_owner]);\n    // counter starts at 0 as per the first index of array which is also the ID of ladies\n    uint256 counter = 0;\n    // loop thru all the ladies[] to find the ladies owned by _owner\n    for (uint256 i = 0; i < ladies.length; i++) {\n            if (ladyIndexToOwner[i] == _owner) {\n                result[counter] = i;\n                counter++;\n            }\n    }\n    return result;  // this will return an array of indexes owned by _owner\n}\n\nfunction createLadyGen0(uint256 _genes) public onlyOwner returns (uint256) {\n    require(gen0Counter < CREATION_LIMIT_GEN0);\n\n    gen0Counter++;\n    \n    // Gen0 have no owners, they are own by the contract\n    // We have to run _createLady with 0s for momId, dadId and generation\n    return _createLady(0, 0, 0, _genes, msg.sender);\n\n}\n\nfunction _createLady(\n    uint256 _ladyMomId,\n    uint256 _ladyDadId,\n    uint256 _generation,\n    uint256 _genes,\n    address _owner\n) private returns (uint256) {\n    Lady memory _lady = Lady({\n        genes: _genes,\n        birthTime: uint64(now),\n        ladyMomId: uint32(_ladyMomId),\n        ladyDadId: uint32(_ladyDadId),\n        generation: uint16(_generation)\n    });\n\n    uint256 newLadyId = ladies.push(_lady) -1;\n\n    emit Birth(_owner, newLadyId, _ladyMomId, _ladyDadId, _genes);\n\n    _transfer(address(0), _owner, newLadyId);\n\n    return newLadyId;\n\n}\n\nfunction balanceOf(address owner) external view returns (uint256 balance){ \n    return ownershipTokenCount[owner];\n}\n// Returns the length of the array of ladies in existence\nfunction totalSupply() public view returns (uint256 total){\n    return ladies.length;\n}\n\nfunction ownerOf(uint256 _tokenId) external view returns (address owner){\n    return ladyIndexToOwner[_tokenId];\n}\n\nfunction transfer(address _to, uint256 _tokenId) external {\n    require(_to != address(0));\n    require(_to != address(this));\n    require(_owns(msg.sender, _tokenId));\n\n    _transfer(msg.sender, _to, _tokenId);\n\n}\n\nfunction _transfer(address _from, address _to, uint256 _tokenId) internal {\n    ownershipTokenCount[_to]++;\n\n    ladyIndexToOwner[_tokenId] = _to;\n\n    if (_from != address(0)) {\n        ownershipTokenCount[_from]--;\n    }\n\n    // Emit transfer event.\n    emit Transfer(_from, _to, _tokenId);\n\n}\n\nfunction _owns(address _claimant, uint256 _tokenId) internal view returns (bool) {\n    return ladyIndexToOwner[_tokenId] == _claimant;\n\n}\n\n/*\nfunction _name() external view returns (string memory tokenName) {\n    tokenName = name;\n    return\n};\n\n\n function _symbol() external view returns (string memory tokenSymbol) {\n\n };\n\n\n\n*/\n\n\n\n\n}",
  "sourcePath": "/Users/andi/Documents/GitHub/ERC 721 Crypto Drags/contracts/Ladycontract.sol",
  "compiler": {
    "name": "solc",
    "version": "0.5.16+commit.9c3226ce.Emscripten.clang"
  },
  "schemaVersion": "3.2.0",
  "updatedAt": "2021-06-22T10:47:00.643Z",
  "networkType": "ethereum",
  "devdoc": {
    "methods": {}
  },
  "userdoc": {
    "methods": {}
  }
}